{
  "address": "0xCf7Ed3AccA5a467e9e704C703E8D87F634fB0Fc9",
  "abi": [
    {
      "inputs": [
        {
          "internalType": "address",
          "name": "vrfCoordinatorV2",
          "type": "address"
        },
        {
          "internalType": "uint256",
          "name": "entranceFee",
          "type": "uint256"
        },
        {
          "internalType": "bytes32",
          "name": "gasLane",
          "type": "bytes32"
        },
        {
          "internalType": "uint64",
          "name": "subscriptionId",
          "type": "uint64"
        },
        {
          "internalType": "uint32",
          "name": "callbackGasLimit",
          "type": "uint32"
        },
        {
          "internalType": "uint256",
          "name": "interval",
          "type": "uint256"
        }
      ],
      "stateMutability": "nonpayable",
      "type": "constructor"
    },
    {
      "inputs": [
        {
          "internalType": "address",
          "name": "have",
          "type": "address"
        },
        {
          "internalType": "address",
          "name": "want",
          "type": "address"
        }
      ],
      "name": "OnlyCoordinatorCanFulfill",
      "type": "error"
    },
    {
      "inputs": [],
      "name": "Raffle_TransferFailed",
      "type": "error"
    },
    {
      "inputs": [],
      "name": "Raffle__RaffleNotOpen",
      "type": "error"
    },
    {
      "inputs": [],
      "name": "Raffle__SendMoreToEnterRaffle",
      "type": "error"
    },
    {
      "inputs": [
        {
          "internalType": "uint256",
          "name": "currentBalance",
          "type": "uint256"
        },
        {
          "internalType": "uint256",
          "name": "numPlayers",
          "type": "uint256"
        },
        {
          "internalType": "uint256",
          "name": "raffleState",
          "type": "uint256"
        }
      ],
      "name": "Raffle__UpkeepNotNeeded",
      "type": "error"
    },
    {
      "anonymous": false,
      "inputs": [
        {
          "indexed": true,
          "internalType": "address",
          "name": "player",
          "type": "address"
        }
      ],
      "name": "RaffleEnter",
      "type": "event"
    },
    {
      "anonymous": false,
      "inputs": [
        {
          "indexed": true,
          "internalType": "uint256",
          "name": "requestId",
          "type": "uint256"
        }
      ],
      "name": "RequestedRaffleWinner",
      "type": "event"
    },
    {
      "anonymous": false,
      "inputs": [
        {
          "indexed": true,
          "internalType": "address",
          "name": "winner",
          "type": "address"
        }
      ],
      "name": "WinnerPicked",
      "type": "event"
    },
    {
      "inputs": [
        {
          "internalType": "bytes",
          "name": "",
          "type": "bytes"
        }
      ],
      "name": "checkUpkeep",
      "outputs": [
        {
          "internalType": "bool",
          "name": "upkeepNeeded",
          "type": "bool"
        },
        {
          "internalType": "bytes",
          "name": "",
          "type": "bytes"
        }
      ],
      "stateMutability": "view",
      "type": "function"
    },
    {
      "inputs": [],
      "name": "enterRaffle",
      "outputs": [],
      "stateMutability": "payable",
      "type": "function"
    },
    {
      "inputs": [],
      "name": "getEntranceFee",
      "outputs": [
        {
          "internalType": "uint256",
          "name": "",
          "type": "uint256"
        }
      ],
      "stateMutability": "view",
      "type": "function"
    },
    {
      "inputs": [],
      "name": "getInterval",
      "outputs": [
        {
          "internalType": "uint256",
          "name": "",
          "type": "uint256"
        }
      ],
      "stateMutability": "view",
      "type": "function"
    },
    {
      "inputs": [],
      "name": "getLastTimeStamp",
      "outputs": [
        {
          "internalType": "uint256",
          "name": "",
          "type": "uint256"
        }
      ],
      "stateMutability": "view",
      "type": "function"
    },
    {
      "inputs": [],
      "name": "getLatestTimeStamp",
      "outputs": [
        {
          "internalType": "uint256",
          "name": "",
          "type": "uint256"
        }
      ],
      "stateMutability": "view",
      "type": "function"
    },
    {
      "inputs": [],
      "name": "getNumWords",
      "outputs": [
        {
          "internalType": "uint256",
          "name": "",
          "type": "uint256"
        }
      ],
      "stateMutability": "pure",
      "type": "function"
    },
    {
      "inputs": [],
      "name": "getNumberOfPlayers",
      "outputs": [
        {
          "internalType": "uint256",
          "name": "",
          "type": "uint256"
        }
      ],
      "stateMutability": "view",
      "type": "function"
    },
    {
      "inputs": [
        {
          "internalType": "uint256",
          "name": "index",
          "type": "uint256"
        }
      ],
      "name": "getPlayer",
      "outputs": [
        {
          "internalType": "address",
          "name": "",
          "type": "address"
        }
      ],
      "stateMutability": "view",
      "type": "function"
    },
    {
      "inputs": [],
      "name": "getRaffleState",
      "outputs": [
        {
          "internalType": "enum Raffle.RaffleState",
          "name": "",
          "type": "uint8"
        }
      ],
      "stateMutability": "view",
      "type": "function"
    },
    {
      "inputs": [],
      "name": "getRecentWinner",
      "outputs": [
        {
          "internalType": "address",
          "name": "",
          "type": "address"
        }
      ],
      "stateMutability": "view",
      "type": "function"
    },
    {
      "inputs": [],
      "name": "getRequestConfirmations",
      "outputs": [
        {
          "internalType": "uint16",
          "name": "",
          "type": "uint16"
        }
      ],
      "stateMutability": "pure",
      "type": "function"
    },
    {
      "inputs": [
        {
          "internalType": "bytes",
          "name": "",
          "type": "bytes"
        }
      ],
      "name": "performUpkeep",
      "outputs": [],
      "stateMutability": "nonpayable",
      "type": "function"
    },
    {
      "inputs": [
        {
          "internalType": "uint256",
          "name": "requestId",
          "type": "uint256"
        },
        {
          "internalType": "uint256[]",
          "name": "randomWords",
          "type": "uint256[]"
        }
      ],
      "name": "rawFulfillRandomWords",
      "outputs": [],
      "stateMutability": "nonpayable",
      "type": "function"
    }
  ],
  "transactionHash": "0xb19d3f7f7436750ef4b9bf8b0089ead24ef4b11d0ceaf735ed440e5fde279fcd",
  "args": [
    "0x5FbDB2315678afecb367f032d93F642f64180aa3",
    "100000000000000000",
    "0xd89b2bf150e3b9e13446986e571fb9cab24b13cea0a43ea20a6049a85cc807cc",
    "1",
    "500000",
    "30"
  ],
  "numDeployments": 1,
  "solcInputHash": "f91460f06e2eb4f3e42fc710d138f474",
  "bytecode": "0x6101606040523480156200001257600080fd5b50604051620018c1380380620018c18339818101604052810190620000389190620001ad565b858073ffffffffffffffffffffffffffffffffffffffff1660808173ffffffffffffffffffffffffffffffffffffffff1660601b81525050508460a081815250508573ffffffffffffffffffffffffffffffffffffffff1660e08173ffffffffffffffffffffffffffffffffffffffff1660601b815250508361010081815250508267ffffffffffffffff166101208167ffffffffffffffff1660c01b815250508163ffffffff166101408163ffffffff1660e01b815250506000600160006101000a81548160ff021916908360018111156200011a5762000119620002b5565b5b0217905550426002819055508060c081815250505050505050506200036b565b6000815190506200014b81620002e9565b92915050565b600081519050620001628162000303565b92915050565b60008151905062000179816200031d565b92915050565b600081519050620001908162000337565b92915050565b600081519050620001a78162000351565b92915050565b60008060008060008060c08789031215620001cd57620001cc620002e4565b5b6000620001dd89828a016200013a565b9650506020620001f089828a0162000168565b95505060406200020389828a0162000151565b94505060606200021689828a0162000196565b93505060806200022989828a016200017f565b92505060a06200023c89828a0162000168565b9150509295509295509295565b6000620002568262000267565b9050919050565b6000819050919050565b600073ffffffffffffffffffffffffffffffffffffffff82169050919050565b6000819050919050565b600063ffffffff82169050919050565b600067ffffffffffffffff82169050919050565b7f4e487b7100000000000000000000000000000000000000000000000000000000600052602160045260246000fd5b600080fd5b620002f48162000249565b81146200030057600080fd5b50565b6200030e816200025d565b81146200031a57600080fd5b50565b620003288162000287565b81146200033457600080fd5b50565b620003428162000291565b81146200034e57600080fd5b50565b6200035c81620002a1565b81146200036857600080fd5b50565b60805160601c60a05160c05160e05160601c610100516101205160c01c6101405160e01c6114da620003e760003960006106eb015260006106c8015260006106a70152600061066b01526000818161083701526108a5015260008181610340015261043d01526000818161037d01526103d101526114da6000f3fe6080604052600436106100dd5760003560e01c806353a2c19a1161007f57806391ad27b41161005957806391ad27b41461027e578063c1c244e8146102a9578063e55ae4e8146102d4578063fd6673f514610311576100dd565b806353a2c19a146101ea5780635f1b0fd8146102155780636e04ff0d14610240576100dd565b80632cfcc539116100bb5780632cfcc53914610161578063320229eb1461016b5780634585e33b14610196578063473f1ddc146101bf576100dd565b806309bc33a7146100e2578063115cbaf51461010d5780631fe543e314610138575b600080fd5b3480156100ee57600080fd5b506100f761033c565b60405161010491906110be565b60405180910390f35b34801561011957600080fd5b50610122610364565b60405161012f9190611088565b60405180910390f35b34801561014457600080fd5b5061015f600480360381019061015a9190610e7c565b61037b565b005b61016961043b565b005b34801561017757600080fd5b506101806105aa565b60405161018d91906110be565b60405180910390f35b3480156101a257600080fd5b506101bd60048036038101906101b89190610d8c565b6105b4565b005b3480156101cb57600080fd5b506101d46107b3565b6040516101e19190610fc1565b60405180910390f35b3480156101f657600080fd5b506101ff6107dd565b60405161020c91906110be565b60405180910390f35b34801561022157600080fd5b5061022a6107ec565b60405161023791906110a3565b60405180910390f35b34801561024c57600080fd5b5061026760048036038101906102629190610dd9565b6107f5565b604051610275929190611005565b60405180910390f35b34801561028a57600080fd5b506102936108a1565b6040516102a091906110be565b60405180910390f35b3480156102b557600080fd5b506102be6108c9565b6040516102cb91906110be565b60405180910390f35b3480156102e057600080fd5b506102fb60048036038101906102f69190610e22565b6108d3565b6040516103089190610fc1565b60405180910390f35b34801561031d57600080fd5b5061032661091a565b60405161033391906110be565b60405180910390f35b60007f0000000000000000000000000000000000000000000000000000000000000000905090565b6000600160009054906101000a900460ff16905090565b7f000000000000000000000000000000000000000000000000000000000000000073ffffffffffffffffffffffffffffffffffffffff163373ffffffffffffffffffffffffffffffffffffffff161461042d57337f00000000000000000000000000000000000000000000000000000000000000006040517f1cf993f4000000000000000000000000000000000000000000000000000000008152600401610424929190610fdc565b60405180910390fd5b6104378282610926565b5050565b7f0000000000000000000000000000000000000000000000000000000000000000341015610495576040517f3038c00a00000000000000000000000000000000000000000000000000000000815260040160405180910390fd5b600060018111156104a9576104a86113ba565b5b600160009054906101000a900460ff1660018111156104cb576104ca6113ba565b5b14610502576040517fd24a271400000000000000000000000000000000000000000000000000000000815260040160405180910390fd5b6000339080600181540180825580915050600190039060005260206000200160009091909190916101000a81548173ffffffffffffffffffffffffffffffffffffffff021916908373ffffffffffffffffffffffffffffffffffffffff1602179055503373ffffffffffffffffffffffffffffffffffffffff167f0805e1d667bddb8a95f0f09880cf94f403fb596ce79928d9f29b74203ba284d460405160405180910390a2565b6000600254905090565b60006105ce604051806020016040528060008152506107f5565b5090508061063d5747600080549050600160009054906101000a900460ff1660018111156105ff576105fe6113ba565b5b6040517f584327aa000000000000000000000000000000000000000000000000000000008152600401610634939291906110d9565b60405180910390fd5b60018060006101000a81548160ff02191690836001811115610662576106616113ba565b5b021790555060007f000000000000000000000000000000000000000000000000000000000000000073ffffffffffffffffffffffffffffffffffffffff16635d3b1d307f00000000000000000000000000000000000000000000000000000000000000007f000000000000000000000000000000000000000000000000000000000000000060037f000000000000000000000000000000000000000000000000000000000000000060016040518663ffffffff1660e01b815260040161072c959493929190611035565b602060405180830381600087803b15801561074657600080fd5b505af115801561075a573d6000803e3d6000fd5b505050506040513d601f19601f8201168201806040525081019061077e9190610e4f565b9050807fcd6e45c8998311cab7e9d4385596cac867e20a0587194b954fa3a731c93ce78b60405160405180910390a250505050565b6000600360009054906101000a900473ffffffffffffffffffffffffffffffffffffffff16905090565b6000600163ffffffff16905090565b60006003905090565b60006060600080600181111561080e5761080d6113ba565b5b600160009054906101000a900460ff1660018111156108305761082f6113ba565b5b14905060007f000000000000000000000000000000000000000000000000000000000000000060025461086391906111b9565b42119050600080600080549050119050600080471190508380156108845750815b801561088d5750805b80156108965750825b955050505050915091565b60007f0000000000000000000000000000000000000000000000000000000000000000905090565b6000600254905090565b60008082815481106108e8576108e76113e9565b5b9060005260206000200160009054906101000a900473ffffffffffffffffffffffffffffffffffffffff169050919050565b60008080549050905090565b6000808054905082600081518110610941576109406113e9565b5b6020026020010151610953919061132b565b9050600080828154811061096a576109696113e9565b5b9060005260206000200160009054906101000a900473ffffffffffffffffffffffffffffffffffffffff16905080600360006101000a81548173ffffffffffffffffffffffffffffffffffffffff021916908373ffffffffffffffffffffffffffffffffffffffff1602179055506000600160006101000a81548160ff021916908360018111156109fe576109fd6113ba565b5b0217905550600067ffffffffffffffff811115610a1e57610a1d611418565b5b604051908082528060200260200182016040528015610a4c5781602001602082028036833780820191505090505b5060009080519060200190610a62929190610b57565b504260028190555060008173ffffffffffffffffffffffffffffffffffffffff1647604051610a9090610fac565b60006040518083038185875af1925050503d8060008114610acd576040519150601f19603f3d011682016040523d82523d6000602084013e610ad2565b606091505b5050905080610b0d576040517fba31c4f300000000000000000000000000000000000000000000000000000000815260040160405180910390fd5b8173ffffffffffffffffffffffffffffffffffffffff167f5b690ec4a06fe979403046eaeea5b3ce38524683c3001f662c8b5a829632f7df60405160405180910390a25050505050565b828054828255906000526020600020908101928215610bd0579160200282015b82811115610bcf5782518260006101000a81548173ffffffffffffffffffffffffffffffffffffffff021916908373ffffffffffffffffffffffffffffffffffffffff16021790555091602001919060010190610b77565b5b509050610bdd9190610be1565b5090565b5b80821115610bfa576000816000905550600101610be2565b5090565b6000610c11610c0c84611135565b611110565b90508083825260208201905082856020860282011115610c3457610c33611451565b5b60005b85811015610c645781610c4a8882610d62565b845260208401935060208301925050600181019050610c37565b5050509392505050565b6000610c81610c7c84611161565b611110565b905082815260208101848484011115610c9d57610c9c611456565b5b610ca88482856112b8565b509392505050565b600082601f830112610cc557610cc461144c565b5b8135610cd5848260208601610bfe565b91505092915050565b60008083601f840112610cf457610cf361144c565b5b8235905067ffffffffffffffff811115610d1157610d10611447565b5b602083019150836001820283011115610d2d57610d2c611451565b5b9250929050565b600082601f830112610d4957610d4861144c565b5b8135610d59848260208601610c6e565b91505092915050565b600081359050610d718161148d565b92915050565b600081519050610d868161148d565b92915050565b60008060208385031215610da357610da2611460565b5b600083013567ffffffffffffffff811115610dc157610dc061145b565b5b610dcd85828601610cde565b92509250509250929050565b600060208284031215610def57610dee611460565b5b600082013567ffffffffffffffff811115610e0d57610e0c61145b565b5b610e1984828501610d34565b91505092915050565b600060208284031215610e3857610e37611460565b5b6000610e4684828501610d62565b91505092915050565b600060208284031215610e6557610e64611460565b5b6000610e7384828501610d77565b91505092915050565b60008060408385031215610e9357610e92611460565b5b6000610ea185828601610d62565b925050602083013567ffffffffffffffff811115610ec257610ec161145b565b5b610ece85828601610cb0565b9150509250929050565b610ee18161120f565b82525050565b610ef081611221565b82525050565b610eff8161122d565b82525050565b6000610f1082611192565b610f1a818561119d565b9350610f2a8185602086016112c7565b610f3381611465565b840191505092915050565b610f47816112a6565b82525050565b6000610f5a6000836111ae565b9150610f6582611476565b600082019050919050565b610f798161124a565b82525050565b610f8881611278565b82525050565b610f9781611282565b82525050565b610fa681611292565b82525050565b6000610fb782610f4d565b9150819050919050565b6000602082019050610fd66000830184610ed8565b92915050565b6000604082019050610ff16000830185610ed8565b610ffe6020830184610ed8565b9392505050565b600060408201905061101a6000830185610ee7565b818103602083015261102c8184610f05565b90509392505050565b600060a08201905061104a6000830188610ef6565b6110576020830187610f9d565b6110646040830186610f70565b6110716060830185610f8e565b61107e6080830184610f8e565b9695505050505050565b600060208201905061109d6000830184610f3e565b92915050565b60006020820190506110b86000830184610f70565b92915050565b60006020820190506110d36000830184610f7f565b92915050565b60006060820190506110ee6000830186610f7f565b6110fb6020830185610f7f565b6111086040830184610f7f565b949350505050565b600061111a61112b565b905061112682826112fa565b919050565b6000604051905090565b600067ffffffffffffffff8211156111505761114f611418565b5b602082029050602081019050919050565b600067ffffffffffffffff82111561117c5761117b611418565b5b61118582611465565b9050602081019050919050565b600081519050919050565b600082825260208201905092915050565b600081905092915050565b60006111c482611278565b91506111cf83611278565b9250827fffffffffffffffffffffffffffffffffffffffffffffffffffffffffffffffff038211156112045761120361135c565b5b828201905092915050565b600061121a82611258565b9050919050565b60008115159050919050565b6000819050919050565b600081905061124582611479565b919050565b600061ffff82169050919050565b600073ffffffffffffffffffffffffffffffffffffffff82169050919050565b6000819050919050565b600063ffffffff82169050919050565b600067ffffffffffffffff82169050919050565b60006112b182611237565b9050919050565b82818337600083830152505050565b60005b838110156112e55780820151818401526020810190506112ca565b838111156112f4576000848401525b50505050565b61130382611465565b810181811067ffffffffffffffff8211171561132257611321611418565b5b80604052505050565b600061133682611278565b915061134183611278565b9250826113515761135061138b565b5b828206905092915050565b7f4e487b7100000000000000000000000000000000000000000000000000000000600052601160045260246000fd5b7f4e487b7100000000000000000000000000000000000000000000000000000000600052601260045260246000fd5b7f4e487b7100000000000000000000000000000000000000000000000000000000600052602160045260246000fd5b7f4e487b7100000000000000000000000000000000000000000000000000000000600052603260045260246000fd5b7f4e487b7100000000000000000000000000000000000000000000000000000000600052604160045260246000fd5b600080fd5b600080fd5b600080fd5b600080fd5b600080fd5b600080fd5b6000601f19601f8301169050919050565b50565b6002811061148a576114896113ba565b5b50565b61149681611278565b81146114a157600080fd5b5056fea26469706673582212207742702ccdd646af64e296d4db151448919d7e26651db70d48eed5235ebfc73664736f6c63430008070033",
  "devdoc": {
    "kind": "dev",
    "methods": {
      "checkUpkeep(bytes)": {
        "details": "This is the function that the ChainLink Keeper nodes call They look for the 'upkeepNeeded' to return true. All of the following should be true in order to trigger the keeper node to run: - The contract has a non-zero balance and at least one player has entered the raffle - The time interval has passed since the last time the contract was run - The subscription is funded with LINK or has not been cancelled  - The lottery should be in state of 'open' "
      }
    },
    "version": 1
  },
  "userdoc": {
    "kind": "user",
    "methods": {},
    "version": 1
  },
  "storageLayout": {
    "storage": [
      {
        "astId": 910,
        "contract": "contracts/Raffle.sol:Raffle",
        "label": "s_players",
        "offset": 0,
        "slot": "0",
        "type": "t_array(t_address_payable)dyn_storage"
      },
      {
        "astId": 913,
        "contract": "contracts/Raffle.sol:Raffle",
        "label": "s_raffleState",
        "offset": 0,
        "slot": "1",
        "type": "t_enum(RaffleState)905"
      },
      {
        "astId": 915,
        "contract": "contracts/Raffle.sol:Raffle",
        "label": "s_lastTimeStamp",
        "offset": 0,
        "slot": "2",
        "type": "t_uint256"
      },
      {
        "astId": 934,
        "contract": "contracts/Raffle.sol:Raffle",
        "label": "s_recentWinner",
        "offset": 0,
        "slot": "3",
        "type": "t_address"
      }
    ],
    "types": {
      "t_address": {
        "encoding": "inplace",
        "label": "address",
        "numberOfBytes": "20"
      },
      "t_address_payable": {
        "encoding": "inplace",
        "label": "address payable",
        "numberOfBytes": "20"
      },
      "t_array(t_address_payable)dyn_storage": {
        "base": "t_address_payable",
        "encoding": "dynamic_array",
        "label": "address payable[]",
        "numberOfBytes": "32"
      },
      "t_enum(RaffleState)905": {
        "encoding": "inplace",
        "label": "enum Raffle.RaffleState",
        "numberOfBytes": "1"
      },
      "t_uint256": {
        "encoding": "inplace",
        "label": "uint256",
        "numberOfBytes": "32"
      }
    }
  }
}