{
  "address": "0x06200b1CDE7Ff8CCc0C9608172c8adc0Ea40584e",
  "abi": [
    {
      "inputs": [
        {
          "internalType": "address",
          "name": "vrfCoordinatorV2",
          "type": "address"
        },
        {
          "internalType": "uint256",
          "name": "entranceFee",
          "type": "uint256"
        },
        {
          "internalType": "bytes32",
          "name": "gasLane",
          "type": "bytes32"
        },
        {
          "internalType": "uint64",
          "name": "subscriptionId",
          "type": "uint64"
        },
        {
          "internalType": "uint32",
          "name": "callbackGasLimit",
          "type": "uint32"
        },
        {
          "internalType": "uint256",
          "name": "interval",
          "type": "uint256"
        }
      ],
      "stateMutability": "nonpayable",
      "type": "constructor"
    },
    {
      "inputs": [
        {
          "internalType": "address",
          "name": "have",
          "type": "address"
        },
        {
          "internalType": "address",
          "name": "want",
          "type": "address"
        }
      ],
      "name": "OnlyCoordinatorCanFulfill",
      "type": "error"
    },
    {
      "inputs": [],
      "name": "Raffle_TransferFailed",
      "type": "error"
    },
    {
      "inputs": [],
      "name": "Raffle__NotEnoughETHEnter",
      "type": "error"
    },
    {
      "inputs": [],
      "name": "Raffle__NotOpen",
      "type": "error"
    },
    {
      "inputs": [
        {
          "internalType": "uint256",
          "name": "currentBalance",
          "type": "uint256"
        },
        {
          "internalType": "uint256",
          "name": "numPlayers",
          "type": "uint256"
        },
        {
          "internalType": "uint256",
          "name": "raffleState",
          "type": "uint256"
        }
      ],
      "name": "Raffle__UpkeepNotNeeded",
      "type": "error"
    },
    {
      "anonymous": false,
      "inputs": [
        {
          "indexed": true,
          "internalType": "address",
          "name": "player",
          "type": "address"
        }
      ],
      "name": "RaffleEnter",
      "type": "event"
    },
    {
      "anonymous": false,
      "inputs": [
        {
          "indexed": true,
          "internalType": "uint256",
          "name": "requestId",
          "type": "uint256"
        }
      ],
      "name": "RequestedRaffleWinner",
      "type": "event"
    },
    {
      "anonymous": false,
      "inputs": [
        {
          "indexed": true,
          "internalType": "address",
          "name": "winner",
          "type": "address"
        }
      ],
      "name": "WinnerPicked",
      "type": "event"
    },
    {
      "inputs": [
        {
          "internalType": "bytes",
          "name": "",
          "type": "bytes"
        }
      ],
      "name": "checkUpkeep",
      "outputs": [
        {
          "internalType": "bool",
          "name": "upkeepNeeded",
          "type": "bool"
        },
        {
          "internalType": "bytes",
          "name": "",
          "type": "bytes"
        }
      ],
      "stateMutability": "view",
      "type": "function"
    },
    {
      "inputs": [],
      "name": "enterRaffle",
      "outputs": [],
      "stateMutability": "payable",
      "type": "function"
    },
    {
      "inputs": [],
      "name": "getEntranceFee",
      "outputs": [
        {
          "internalType": "uint256",
          "name": "",
          "type": "uint256"
        }
      ],
      "stateMutability": "view",
      "type": "function"
    },
    {
      "inputs": [],
      "name": "getLatestTimeStamp",
      "outputs": [
        {
          "internalType": "uint256",
          "name": "",
          "type": "uint256"
        }
      ],
      "stateMutability": "view",
      "type": "function"
    },
    {
      "inputs": [],
      "name": "getNumWords",
      "outputs": [
        {
          "internalType": "uint256",
          "name": "",
          "type": "uint256"
        }
      ],
      "stateMutability": "pure",
      "type": "function"
    },
    {
      "inputs": [],
      "name": "getNumberOfPlayers",
      "outputs": [
        {
          "internalType": "uint256",
          "name": "",
          "type": "uint256"
        }
      ],
      "stateMutability": "view",
      "type": "function"
    },
    {
      "inputs": [
        {
          "internalType": "uint256",
          "name": "index",
          "type": "uint256"
        }
      ],
      "name": "getPlayer",
      "outputs": [
        {
          "internalType": "address",
          "name": "",
          "type": "address"
        }
      ],
      "stateMutability": "view",
      "type": "function"
    },
    {
      "inputs": [],
      "name": "getRaffleState",
      "outputs": [
        {
          "internalType": "enum Raffle.RaffleState",
          "name": "",
          "type": "uint8"
        }
      ],
      "stateMutability": "view",
      "type": "function"
    },
    {
      "inputs": [],
      "name": "getRecentWinner",
      "outputs": [
        {
          "internalType": "address",
          "name": "",
          "type": "address"
        }
      ],
      "stateMutability": "view",
      "type": "function"
    },
    {
      "inputs": [],
      "name": "getRequestConfirmations",
      "outputs": [
        {
          "internalType": "uint16",
          "name": "",
          "type": "uint16"
        }
      ],
      "stateMutability": "pure",
      "type": "function"
    },
    {
      "inputs": [
        {
          "internalType": "bytes",
          "name": "",
          "type": "bytes"
        }
      ],
      "name": "performUpkeep",
      "outputs": [],
      "stateMutability": "nonpayable",
      "type": "function"
    },
    {
      "inputs": [
        {
          "internalType": "uint256",
          "name": "requestId",
          "type": "uint256"
        },
        {
          "internalType": "uint256[]",
          "name": "randomWords",
          "type": "uint256[]"
        }
      ],
      "name": "rawFulfillRandomWords",
      "outputs": [],
      "stateMutability": "nonpayable",
      "type": "function"
    }
  ],
  "transactionHash": "0x9b673a4f2b634122b58c6b12458f6c1981b885d4312d619e0802fc83b6b37542",
  "args": [
    "0x6168499c0cFfCaCD319c818142124B7A15E857ab",
    "100000000000000000",
    "0xd89b2bf150e3b9e13446986e571fb9cab24b13cea0a43ea20a6049a85cc807cc",
    "6712",
    "500000",
    "30"
  ],
  "numDeployments": 1,
  "solcInputHash": "5d338f854eb65d62b14a8c911051e67a",
  "bytecode": "0x6101606040523480156200001257600080fd5b50604051620017fc380380620017fc8339818101604052810190620000389190620001ad565b858073ffffffffffffffffffffffffffffffffffffffff1660808173ffffffffffffffffffffffffffffffffffffffff1660601b81525050508460a081815250508573ffffffffffffffffffffffffffffffffffffffff1660e08173ffffffffffffffffffffffffffffffffffffffff1660601b815250508361010081815250508267ffffffffffffffff166101208167ffffffffffffffff1660c01b815250508163ffffffff166101408163ffffffff1660e01b815250506000600160006101000a81548160ff021916908360018111156200011a5762000119620002b5565b5b0217905550426002819055508060c081815250505050505050506200036b565b6000815190506200014b81620002e9565b92915050565b600081519050620001628162000303565b92915050565b60008151905062000179816200031d565b92915050565b600081519050620001908162000337565b92915050565b600081519050620001a78162000351565b92915050565b60008060008060008060c08789031215620001cd57620001cc620002e4565b5b6000620001dd89828a016200013a565b9650506020620001f089828a0162000168565b95505060406200020389828a0162000151565b94505060606200021689828a0162000196565b93505060806200022989828a016200017f565b92505060a06200023c89828a0162000168565b9150509295509295509295565b6000620002568262000267565b9050919050565b6000819050919050565b600073ffffffffffffffffffffffffffffffffffffffff82169050919050565b6000819050919050565b600063ffffffff82169050919050565b600067ffffffffffffffff82169050919050565b7f4e487b7100000000000000000000000000000000000000000000000000000000600052602160045260246000fd5b600080fd5b620002f48162000249565b81146200030057600080fd5b50565b6200030e816200025d565b81146200031a57600080fd5b50565b620003288162000287565b81146200033457600080fd5b50565b620003428162000291565b81146200034e57600080fd5b50565b6200035c81620002a1565b81146200036857600080fd5b50565b60805160601c60a05160c05160e05160601c610100516101205160c01c6101405160e01c61141c620003e0600039600061065f0152600061063c0152600061061b015260006105df015260006107ab0152600081816102b401526103b10152600081816102f10152610345015261141c6000f3fe6080604052600436106100a75760003560e01c8063473f1ddc11610064578063473f1ddc1461018957806353a2c19a146101b45780635f1b0fd8146101df5780636e04ff0d1461020a578063e55ae4e814610248578063fd6673f514610285576100a7565b806309bc33a7146100ac578063115cbaf5146100d75780631fe543e3146101025780632cfcc5391461012b578063320229eb146101355780634585e33b14610160575b600080fd5b3480156100b857600080fd5b506100c16102b0565b6040516100ce9190611000565b60405180910390f35b3480156100e357600080fd5b506100ec6102d8565b6040516100f99190610fca565b60405180910390f35b34801561010e57600080fd5b5061012960048036038101906101249190610dbe565b6102ef565b005b6101336103af565b005b34801561014157600080fd5b5061014a61051e565b6040516101579190611000565b60405180910390f35b34801561016c57600080fd5b5061018760048036038101906101829190610cce565b610528565b005b34801561019557600080fd5b5061019e610727565b6040516101ab9190610f03565b60405180910390f35b3480156101c057600080fd5b506101c9610751565b6040516101d69190611000565b60405180910390f35b3480156101eb57600080fd5b506101f4610760565b6040516102019190610fe5565b60405180910390f35b34801561021657600080fd5b50610231600480360381019061022c9190610d1b565b610769565b60405161023f929190610f47565b60405180910390f35b34801561025457600080fd5b5061026f600480360381019061026a9190610d64565b610815565b60405161027c9190610f03565b60405180910390f35b34801561029157600080fd5b5061029a61085c565b6040516102a79190611000565b60405180910390f35b60007f0000000000000000000000000000000000000000000000000000000000000000905090565b6000600160009054906101000a900460ff16905090565b7f000000000000000000000000000000000000000000000000000000000000000073ffffffffffffffffffffffffffffffffffffffff163373ffffffffffffffffffffffffffffffffffffffff16146103a157337f00000000000000000000000000000000000000000000000000000000000000006040517f1cf993f4000000000000000000000000000000000000000000000000000000008152600401610398929190610f1e565b60405180910390fd5b6103ab8282610868565b5050565b7f0000000000000000000000000000000000000000000000000000000000000000341015610409576040517f022cd66e00000000000000000000000000000000000000000000000000000000815260040160405180910390fd5b6000600181111561041d5761041c6112fc565b5b600160009054906101000a900460ff16600181111561043f5761043e6112fc565b5b14610476576040517f1425571c00000000000000000000000000000000000000000000000000000000815260040160405180910390fd5b6000339080600181540180825580915050600190039060005260206000200160009091909190916101000a81548173ffffffffffffffffffffffffffffffffffffffff021916908373ffffffffffffffffffffffffffffffffffffffff1602179055503373ffffffffffffffffffffffffffffffffffffffff167f0805e1d667bddb8a95f0f09880cf94f403fb596ce79928d9f29b74203ba284d460405160405180910390a2565b6000600254905090565b600061054260405180602001604052806000815250610769565b509050806105b15747600080549050600160009054906101000a900460ff166001811115610573576105726112fc565b5b6040517f584327aa0000000000000000000000000000000000000000000000000000000081526004016105a89392919061101b565b60405180910390fd5b60018060006101000a81548160ff021916908360018111156105d6576105d56112fc565b5b021790555060007f000000000000000000000000000000000000000000000000000000000000000073ffffffffffffffffffffffffffffffffffffffff16635d3b1d307f00000000000000000000000000000000000000000000000000000000000000007f000000000000000000000000000000000000000000000000000000000000000060037f000000000000000000000000000000000000000000000000000000000000000060016040518663ffffffff1660e01b81526004016106a0959493929190610f77565b602060405180830381600087803b1580156106ba57600080fd5b505af11580156106ce573d6000803e3d6000fd5b505050506040513d601f19601f820116820180604052508101906106f29190610d91565b9050807fcd6e45c8998311cab7e9d4385596cac867e20a0587194b954fa3a731c93ce78b60405160405180910390a250505050565b6000600360009054906101000a900473ffffffffffffffffffffffffffffffffffffffff16905090565b6000600163ffffffff16905090565b60006003905090565b600060606000806001811115610782576107816112fc565b5b600160009054906101000a900460ff1660018111156107a4576107a36112fc565b5b14905060007f00000000000000000000000000000000000000000000000000000000000000006002546107d791906110fb565b42119050600080600080549050119050600080471190508380156107f85750815b80156108015750805b801561080a5750825b955050505050915091565b600080828154811061082a5761082961132b565b5b9060005260206000200160009054906101000a900473ffffffffffffffffffffffffffffffffffffffff169050919050565b60008080549050905090565b60008080549050826000815181106108835761088261132b565b5b6020026020010151610895919061126d565b905060008082815481106108ac576108ab61132b565b5b9060005260206000200160009054906101000a900473ffffffffffffffffffffffffffffffffffffffff16905080600360006101000a81548173ffffffffffffffffffffffffffffffffffffffff021916908373ffffffffffffffffffffffffffffffffffffffff1602179055506000600160006101000a81548160ff021916908360018111156109405761093f6112fc565b5b0217905550600067ffffffffffffffff8111156109605761095f61135a565b5b60405190808252806020026020018201604052801561098e5781602001602082028036833780820191505090505b50600090805190602001906109a4929190610a99565b504260028190555060008173ffffffffffffffffffffffffffffffffffffffff16476040516109d290610eee565b60006040518083038185875af1925050503d8060008114610a0f576040519150601f19603f3d011682016040523d82523d6000602084013e610a14565b606091505b5050905080610a4f576040517fba31c4f300000000000000000000000000000000000000000000000000000000815260040160405180910390fd5b8173ffffffffffffffffffffffffffffffffffffffff167f5b690ec4a06fe979403046eaeea5b3ce38524683c3001f662c8b5a829632f7df60405160405180910390a25050505050565b828054828255906000526020600020908101928215610b12579160200282015b82811115610b115782518260006101000a81548173ffffffffffffffffffffffffffffffffffffffff021916908373ffffffffffffffffffffffffffffffffffffffff16021790555091602001919060010190610ab9565b5b509050610b1f9190610b23565b5090565b5b80821115610b3c576000816000905550600101610b24565b5090565b6000610b53610b4e84611077565b611052565b90508083825260208201905082856020860282011115610b7657610b75611393565b5b60005b85811015610ba65781610b8c8882610ca4565b845260208401935060208301925050600181019050610b79565b5050509392505050565b6000610bc3610bbe846110a3565b611052565b905082815260208101848484011115610bdf57610bde611398565b5b610bea8482856111fa565b509392505050565b600082601f830112610c0757610c0661138e565b5b8135610c17848260208601610b40565b91505092915050565b60008083601f840112610c3657610c3561138e565b5b8235905067ffffffffffffffff811115610c5357610c52611389565b5b602083019150836001820283011115610c6f57610c6e611393565b5b9250929050565b600082601f830112610c8b57610c8a61138e565b5b8135610c9b848260208601610bb0565b91505092915050565b600081359050610cb3816113cf565b92915050565b600081519050610cc8816113cf565b92915050565b60008060208385031215610ce557610ce46113a2565b5b600083013567ffffffffffffffff811115610d0357610d0261139d565b5b610d0f85828601610c20565b92509250509250929050565b600060208284031215610d3157610d306113a2565b5b600082013567ffffffffffffffff811115610d4f57610d4e61139d565b5b610d5b84828501610c76565b91505092915050565b600060208284031215610d7a57610d796113a2565b5b6000610d8884828501610ca4565b91505092915050565b600060208284031215610da757610da66113a2565b5b6000610db584828501610cb9565b91505092915050565b60008060408385031215610dd557610dd46113a2565b5b6000610de385828601610ca4565b925050602083013567ffffffffffffffff811115610e0457610e0361139d565b5b610e1085828601610bf2565b9150509250929050565b610e2381611151565b82525050565b610e3281611163565b82525050565b610e418161116f565b82525050565b6000610e52826110d4565b610e5c81856110df565b9350610e6c818560208601611209565b610e75816113a7565b840191505092915050565b610e89816111e8565b82525050565b6000610e9c6000836110f0565b9150610ea7826113b8565b600082019050919050565b610ebb8161118c565b82525050565b610eca816111ba565b82525050565b610ed9816111c4565b82525050565b610ee8816111d4565b82525050565b6000610ef982610e8f565b9150819050919050565b6000602082019050610f186000830184610e1a565b92915050565b6000604082019050610f336000830185610e1a565b610f406020830184610e1a565b9392505050565b6000604082019050610f5c6000830185610e29565b8181036020830152610f6e8184610e47565b90509392505050565b600060a082019050610f8c6000830188610e38565b610f996020830187610edf565b610fa66040830186610eb2565b610fb36060830185610ed0565b610fc06080830184610ed0565b9695505050505050565b6000602082019050610fdf6000830184610e80565b92915050565b6000602082019050610ffa6000830184610eb2565b92915050565b60006020820190506110156000830184610ec1565b92915050565b60006060820190506110306000830186610ec1565b61103d6020830185610ec1565b61104a6040830184610ec1565b949350505050565b600061105c61106d565b9050611068828261123c565b919050565b6000604051905090565b600067ffffffffffffffff8211156110925761109161135a565b5b602082029050602081019050919050565b600067ffffffffffffffff8211156110be576110bd61135a565b5b6110c7826113a7565b9050602081019050919050565b600081519050919050565b600082825260208201905092915050565b600081905092915050565b6000611106826111ba565b9150611111836111ba565b9250827fffffffffffffffffffffffffffffffffffffffffffffffffffffffffffffffff038211156111465761114561129e565b5b828201905092915050565b600061115c8261119a565b9050919050565b60008115159050919050565b6000819050919050565b6000819050611187826113bb565b919050565b600061ffff82169050919050565b600073ffffffffffffffffffffffffffffffffffffffff82169050919050565b6000819050919050565b600063ffffffff82169050919050565b600067ffffffffffffffff82169050919050565b60006111f382611179565b9050919050565b82818337600083830152505050565b60005b8381101561122757808201518184015260208101905061120c565b83811115611236576000848401525b50505050565b611245826113a7565b810181811067ffffffffffffffff821117156112645761126361135a565b5b80604052505050565b6000611278826111ba565b9150611283836111ba565b925082611293576112926112cd565b5b828206905092915050565b7f4e487b7100000000000000000000000000000000000000000000000000000000600052601160045260246000fd5b7f4e487b7100000000000000000000000000000000000000000000000000000000600052601260045260246000fd5b7f4e487b7100000000000000000000000000000000000000000000000000000000600052602160045260246000fd5b7f4e487b7100000000000000000000000000000000000000000000000000000000600052603260045260246000fd5b7f4e487b7100000000000000000000000000000000000000000000000000000000600052604160045260246000fd5b600080fd5b600080fd5b600080fd5b600080fd5b600080fd5b600080fd5b6000601f19601f8301169050919050565b50565b600281106113cc576113cb6112fc565b5b50565b6113d8816111ba565b81146113e357600080fd5b5056fea26469706673582212202240ed6c85e4077ba484e2f34263d980ae15dc2e2c9bd52e8f44a87ce558bdd664736f6c63430008070033",
  "devdoc": {
    "kind": "dev",
    "methods": {
      "checkUpkeep(bytes)": {
        "details": "This is the function that the ChainLink Keeper nodes call They look for the 'upkeepNeeded' to return true. All of the following should be true in order to trigger the keeper node to run: - The contract has a non-zero balance and at least one player has entered the raffle - The time interval has passed since the last time the contract was run - The subscription is funded with LINK or has not been cancelled  - The lottery should be in state of 'open' "
      }
    },
    "version": 1
  },
  "userdoc": {
    "kind": "user",
    "methods": {},
    "version": 1
  },
  "storageLayout": {
    "storage": [
      {
        "astId": 910,
        "contract": "contracts/Raffle.sol:Raffle",
        "label": "s_players",
        "offset": 0,
        "slot": "0",
        "type": "t_array(t_address_payable)dyn_storage"
      },
      {
        "astId": 913,
        "contract": "contracts/Raffle.sol:Raffle",
        "label": "s_raffleState",
        "offset": 0,
        "slot": "1",
        "type": "t_enum(RaffleState)905"
      },
      {
        "astId": 915,
        "contract": "contracts/Raffle.sol:Raffle",
        "label": "s_lastTimeStamp",
        "offset": 0,
        "slot": "2",
        "type": "t_uint256"
      },
      {
        "astId": 934,
        "contract": "contracts/Raffle.sol:Raffle",
        "label": "s_recentWinner",
        "offset": 0,
        "slot": "3",
        "type": "t_address"
      }
    ],
    "types": {
      "t_address": {
        "encoding": "inplace",
        "label": "address",
        "numberOfBytes": "20"
      },
      "t_address_payable": {
        "encoding": "inplace",
        "label": "address payable",
        "numberOfBytes": "20"
      },
      "t_array(t_address_payable)dyn_storage": {
        "base": "t_address_payable",
        "encoding": "dynamic_array",
        "label": "address payable[]",
        "numberOfBytes": "32"
      },
      "t_enum(RaffleState)905": {
        "encoding": "inplace",
        "label": "enum Raffle.RaffleState",
        "numberOfBytes": "1"
      },
      "t_uint256": {
        "encoding": "inplace",
        "label": "uint256",
        "numberOfBytes": "32"
      }
    }
  }
}